{
  "contractName": "ENSRegistry",
  "abi": [
    {
      "inputs": [],
      "payable": false,
      "stateMutability": "nonpayable",
      "type": "constructor"
    },
    {
      "anonymous": false,
      "inputs": [
        {
          "indexed": true,
          "name": "node",
          "type": "bytes32"
        },
        {
          "indexed": true,
          "name": "label",
          "type": "bytes32"
        },
        {
          "indexed": false,
          "name": "owner",
          "type": "address"
        }
      ],
      "name": "NewOwner",
      "type": "event"
    },
    {
      "anonymous": false,
      "inputs": [
        {
          "indexed": true,
          "name": "node",
          "type": "bytes32"
        },
        {
          "indexed": false,
          "name": "owner",
          "type": "address"
        }
      ],
      "name": "Transfer",
      "type": "event"
    },
    {
      "anonymous": false,
      "inputs": [
        {
          "indexed": true,
          "name": "node",
          "type": "bytes32"
        },
        {
          "indexed": false,
          "name": "resolver",
          "type": "address"
        }
      ],
      "name": "NewResolver",
      "type": "event"
    },
    {
      "anonymous": false,
      "inputs": [
        {
          "indexed": true,
          "name": "node",
          "type": "bytes32"
        },
        {
          "indexed": false,
          "name": "ttl",
          "type": "uint64"
        }
      ],
      "name": "NewTTL",
      "type": "event"
    },
    {
      "constant": false,
      "inputs": [
        {
          "name": "node",
          "type": "bytes32"
        },
        {
          "name": "owner",
          "type": "address"
        }
      ],
      "name": "setOwner",
      "outputs": [],
      "payable": false,
      "stateMutability": "nonpayable",
      "type": "function"
    },
    {
      "constant": false,
      "inputs": [
        {
          "name": "node",
          "type": "bytes32"
        },
        {
          "name": "label",
          "type": "bytes32"
        },
        {
          "name": "owner",
          "type": "address"
        }
      ],
      "name": "setSubnodeOwner",
      "outputs": [],
      "payable": false,
      "stateMutability": "nonpayable",
      "type": "function"
    },
    {
      "constant": false,
      "inputs": [
        {
          "name": "node",
          "type": "bytes32"
        },
        {
          "name": "resolver",
          "type": "address"
        }
      ],
      "name": "setResolver",
      "outputs": [],
      "payable": false,
      "stateMutability": "nonpayable",
      "type": "function"
    },
    {
      "constant": false,
      "inputs": [
        {
          "name": "node",
          "type": "bytes32"
        },
        {
          "name": "ttl",
          "type": "uint64"
        }
      ],
      "name": "setTTL",
      "outputs": [],
      "payable": false,
      "stateMutability": "nonpayable",
      "type": "function"
    },
    {
      "constant": true,
      "inputs": [
        {
          "name": "node",
          "type": "bytes32"
        }
      ],
      "name": "owner",
      "outputs": [
        {
          "name": "",
          "type": "address"
        }
      ],
      "payable": false,
      "stateMutability": "view",
      "type": "function"
    },
    {
      "constant": true,
      "inputs": [
        {
          "name": "node",
          "type": "bytes32"
        }
      ],
      "name": "resolver",
      "outputs": [
        {
          "name": "",
          "type": "address"
        }
      ],
      "payable": false,
      "stateMutability": "view",
      "type": "function"
    },
    {
      "constant": true,
      "inputs": [
        {
          "name": "node",
          "type": "bytes32"
        }
      ],
      "name": "ttl",
      "outputs": [
        {
          "name": "",
          "type": "uint64"
        }
      ],
      "payable": false,
      "stateMutability": "view",
      "type": "function"
    }
  ],
  "bytecode": "0x608060405234801561001057600080fd5b5060008080526020527fad3228b676f7d3cd4284a5443f17f1962b36e491b30a40b2405849e597ba5fb58054600160a060020a03191633179055610562806100596000396000f3006080604052600436106100825763ffffffff7c01000000000000000000000000000000000000000000000000000000006000350416630178b8bf811461008757806302571be3146100bb57806306ab5923146100d357806314ab9038146100fc57806316a25cbd146101215780631896f70a146101565780635b0fc9c31461017a575b600080fd5b34801561009357600080fd5b5061009f60043561019e565b60408051600160a060020a039092168252519081900360200190f35b3480156100c757600080fd5b5061009f6004356101bc565b3480156100df57600080fd5b506100fa600435602435600160a060020a03604435166101d7565b005b34801561010857600080fd5b506100fa60043567ffffffffffffffff602435166102f3565b34801561012d57600080fd5b506101396004356103bc565b6040805167ffffffffffffffff9092168252519081900360200190f35b34801561016257600080fd5b506100fa600435600160a060020a03602435166103f3565b34801561018657600080fd5b506100fa600435600160a060020a0360243516610496565b600090815260208190526040902060010154600160a060020a031690565b600090815260208190526040902054600160a060020a031690565b6000838152602081905260408120548490600160a060020a031633146101fc57600080fd5b604080516020808201889052818301879052825180830384018152606090920192839052815191929182918401908083835b6020831061024d5780518252601f19909201916020918201910161022e565b51815160209384036101000a600019018019909216911617905260408051929094018290038220600160a060020a038a16835293519397508995508a94507fce0457fe73731f824cc272376169235128c118b49d344817417c6d108d155e829391829003019150a3506000908152602081905260409020805473ffffffffffffffffffffffffffffffffffffffff1916600160a060020a03929092169190911790555050565b6000828152602081905260409020548290600160a060020a0316331461031857600080fd5b6040805167ffffffffffffffff84168152905184917f1d4f9bbfc9cab89d66e1a1562f2233ccbf1308cb4f63de2ead5787adddb8fa68919081900360200190a250600091825260208290526040909120600101805467ffffffffffffffff90921674010000000000000000000000000000000000000000027fffffffff0000000000000000ffffffffffffffffffffffffffffffffffffffff909216919091179055565b60009081526020819052604090206001015474010000000000000000000000000000000000000000900467ffffffffffffffff1690565b6000828152602081905260409020548290600160a060020a0316331461041857600080fd5b60408051600160a060020a0384168152905184917f335721b01866dc23fbee8b6b2c7b1e14d6f05c28cd35a2c934239f94095602a0919081900360200190a250600091825260208290526040909120600101805473ffffffffffffffffffffffffffffffffffffffff1916600160a060020a03909216919091179055565b6000828152602081905260409020548290600160a060020a031633146104bb57600080fd5b60408051600160a060020a0384168152905184917fd4735d920b0f87494915f556dd9b54c8f309026070caea5c737245152564d266919081900360200190a250600091825260208290526040909120805473ffffffffffffffffffffffffffffffffffffffff1916600160a060020a039092169190911790555600a165627a7a723058202dcbb5ea0e4efb92d285e83b82b59afcbd68609efc5a1348f121d04b2069c1450029",
  "source": "pragma solidity ^0.4.25;\r\n\r\nimport './ENS.sol';\r\n\r\n/**\r\n * The ENS registry contract.\r\n */\r\ncontract ENSRegistry is ENS {\r\n    struct Record {\r\n        address owner;\r\n        address resolver;\r\n        uint64 ttl;\r\n    }\r\n\r\n    mapping (bytes32 => Record) records;\r\n\r\n    // Permits modifications only by the owner of the specified node.\r\n    modifier only_owner(bytes32 node) {\r\n        require(records[node].owner == msg.sender);\r\n        _;\r\n    }\r\n\r\n    /**\r\n     * @dev Constructs a new ENS registrar.\r\n     */\r\n    constructor() public {\r\n        records[0x0].owner = msg.sender;\r\n    }\r\n\r\n    /**\r\n     * @dev Transfers ownership of a node to a new address. May only be called by the current owner of the node.\r\n     * @param node The node to transfer ownership of.\r\n     * @param owner The address of the new owner.\r\n     */\r\n    function setOwner(bytes32 node, address owner) public only_owner(node) {\r\n        emit Transfer(node, owner);\r\n        records[node].owner = owner;\r\n    }\r\n\r\n    /**\r\n     * @dev Transfers ownership of a subnode keccak256(node, label) to a new address. May only be called by the owner of the parent node.\r\n     * @param node The parent node.\r\n     * @param label The hash of the label specifying the subnode.\r\n     * @param owner The address of the new owner.\r\n     */\r\n    function setSubnodeOwner(bytes32 node, bytes32 label, address owner) public only_owner(node) {\r\n        bytes32 subnode = keccak256(abi.encodePacked(node, label));\r\n        emit NewOwner(node, label, owner);\r\n        records[subnode].owner = owner;\r\n    }\r\n\r\n    /**\r\n     * @dev Sets the resolver address for the specified node.\r\n     * @param node The node to update.\r\n     * @param resolver The address of the resolver.\r\n     */\r\n    function setResolver(bytes32 node, address resolver) public only_owner(node) {\r\n        emit NewResolver(node, resolver);\r\n        records[node].resolver = resolver;\r\n    }\r\n\r\n    /**\r\n     * @dev Sets the TTL for the specified node.\r\n     * @param node The node to update.\r\n     * @param ttl The TTL in seconds.\r\n     */\r\n    function setTTL(bytes32 node, uint64 ttl) public only_owner(node) {\r\n        emit NewTTL(node, ttl);\r\n        records[node].ttl = ttl;\r\n    }\r\n\r\n    /**\r\n     * @dev Returns the address that owns the specified node.\r\n     * @param node The specified node.\r\n     * @return address of the owner.\r\n     */\r\n    function owner(bytes32 node) public view returns (address) {\r\n        return records[node].owner;\r\n    }\r\n\r\n    /**\r\n     * @dev Returns the address of the resolver for the specified node.\r\n     * @param node The specified node.\r\n     * @return address of the resolver.\r\n     */\r\n    function resolver(bytes32 node) public view returns (address) {\r\n        return records[node].resolver;\r\n    }\r\n\r\n    /**\r\n     * @dev Returns the TTL of a node, and any records associated with it.\r\n     * @param node The specified node.\r\n     * @return ttl of the node.\r\n     */\r\n    function ttl(bytes32 node) public view returns (uint64) {\r\n        return records[node].ttl;\r\n    }\r\n\r\n}\r\n",
  "sourcePath": "C:\\src\\personal\\ens-registrar\\lib\\ENSRegistry.sol",
  "compiler": {
    "name": "solc",
    "version": "0.4.25+commit.59dbf8f1.Emscripten.clang"
  },
  "schemaVersion": "3.0.0",
  "updatedAt": "2019-01-02T10:58:59.726Z",
  "devdoc": {
    "methods": {
      "owner(bytes32)": {
        "details": "Returns the address that owns the specified node.\r",
        "params": {
          "node": "The specified node.\r"
        },
        "return": "address of the owner.\r"
      },
      "resolver(bytes32)": {
        "details": "Returns the address of the resolver for the specified node.\r",
        "params": {
          "node": "The specified node.\r"
        },
        "return": "address of the resolver.\r"
      },
      "setOwner(bytes32,address)": {
        "details": "Transfers ownership of a node to a new address. May only be called by the current owner of the node.\r",
        "params": {
          "node": "The node to transfer ownership of.\r",
          "owner": "The address of the new owner.\r"
        }
      },
      "setResolver(bytes32,address)": {
        "details": "Sets the resolver address for the specified node.\r",
        "params": {
          "node": "The node to update.\r",
          "resolver": "The address of the resolver.\r"
        }
      },
      "setSubnodeOwner(bytes32,bytes32,address)": {
        "details": "Transfers ownership of a subnode keccak256(node, label) to a new address. May only be called by the owner of the parent node.\r",
        "params": {
          "label": "The hash of the label specifying the subnode.\r",
          "node": "The parent node.\r",
          "owner": "The address of the new owner.\r"
        }
      },
      "setTTL(bytes32,uint64)": {
        "details": "Sets the TTL for the specified node.\r",
        "params": {
          "node": "The node to update.\r",
          "ttl": "The TTL in seconds.\r"
        }
      },
      "ttl(bytes32)": {
        "details": "Returns the TTL of a node, and any records associated with it.\r",
        "params": {
          "node": "The specified node.\r"
        },
        "return": "ttl of the node.\r"
      }
    }
  },
  "userdoc": {
    "methods": {}
  }
}