{
  "contractName": "TopmonksRegistrar",
  "abi": [
    {
      "constant": true,
      "inputs": [],
      "name": "resolver",
      "outputs": [
        {
          "name": "",
          "type": "address"
        }
      ],
      "payable": false,
      "stateMutability": "view",
      "type": "function"
    },
    {
      "constant": true,
      "inputs": [],
      "name": "ens",
      "outputs": [
        {
          "name": "",
          "type": "address"
        }
      ],
      "payable": false,
      "stateMutability": "view",
      "type": "function"
    },
    {
      "constant": false,
      "inputs": [],
      "name": "renounceOwnership",
      "outputs": [],
      "payable": false,
      "stateMutability": "nonpayable",
      "type": "function"
    },
    {
      "constant": true,
      "inputs": [],
      "name": "owner",
      "outputs": [
        {
          "name": "",
          "type": "address"
        }
      ],
      "payable": false,
      "stateMutability": "view",
      "type": "function"
    },
    {
      "constant": true,
      "inputs": [],
      "name": "isOwner",
      "outputs": [
        {
          "name": "",
          "type": "bool"
        }
      ],
      "payable": false,
      "stateMutability": "view",
      "type": "function"
    },
    {
      "constant": false,
      "inputs": [
        {
          "name": "newOwner",
          "type": "address"
        }
      ],
      "name": "transferOwnership",
      "outputs": [],
      "payable": false,
      "stateMutability": "nonpayable",
      "type": "function"
    },
    {
      "constant": true,
      "inputs": [],
      "name": "rootNode",
      "outputs": [
        {
          "name": "",
          "type": "bytes32"
        }
      ],
      "payable": false,
      "stateMutability": "view",
      "type": "function"
    },
    {
      "inputs": [
        {
          "name": "_node",
          "type": "bytes32"
        },
        {
          "name": "_ensAddr",
          "type": "address"
        },
        {
          "name": "_resolverAddr",
          "type": "address"
        }
      ],
      "payable": false,
      "stateMutability": "nonpayable",
      "type": "constructor"
    },
    {
      "anonymous": false,
      "inputs": [
        {
          "indexed": true,
          "name": "previousOwner",
          "type": "address"
        },
        {
          "indexed": true,
          "name": "newOwner",
          "type": "address"
        }
      ],
      "name": "OwnershipTransferred",
      "type": "event"
    },
    {
      "constant": false,
      "inputs": [
        {
          "name": "_node",
          "type": "bytes32"
        }
      ],
      "name": "setRootNode",
      "outputs": [],
      "payable": false,
      "stateMutability": "nonpayable",
      "type": "function"
    },
    {
      "constant": false,
      "inputs": [
        {
          "name": "_resolverAddr",
          "type": "address"
        }
      ],
      "name": "setResolver",
      "outputs": [],
      "payable": false,
      "stateMutability": "nonpayable",
      "type": "function"
    },
    {
      "constant": false,
      "inputs": [
        {
          "name": "_newOwner",
          "type": "address"
        }
      ],
      "name": "setNodeOwner",
      "outputs": [],
      "payable": false,
      "stateMutability": "nonpayable",
      "type": "function"
    },
    {
      "constant": false,
      "inputs": [
        {
          "name": "_subnode",
          "type": "bytes32"
        },
        {
          "name": "_addr",
          "type": "address"
        }
      ],
      "name": "setSubnodeOwner",
      "outputs": [],
      "payable": false,
      "stateMutability": "nonpayable",
      "type": "function"
    },
    {
      "constant": false,
      "inputs": [
        {
          "name": "_subnode",
          "type": "bytes32"
        },
        {
          "name": "_addr",
          "type": "address"
        }
      ],
      "name": "register",
      "outputs": [],
      "payable": false,
      "stateMutability": "nonpayable",
      "type": "function"
    }
  ],
  "bytecode": "0x608060405234801561001057600080fd5b50604051606080610a6a83398101604081815282516020840151919093015160008054600160a060020a031916331780825592939192600160a060020a0316917f8be0079c531659141344cd1fd0a4f28419497f9722a3daafe3b4186f6b6457e0908290a360019290925560028054600160a060020a03928316600160a060020a031991821617909155600380549290931691161790556109b4806100b66000396000f3006080604052600436106100b95763ffffffff7c010000000000000000000000000000000000000000000000000000000060003504166304f3bcec81146100be5780633f15457f146100ef5780634e543b2614610104578063715018a61461012757806377f9996b1461013c5780638cb8ecec1461015d5780638da5cb5b146101815780638f32d59b14610196578063d20ab1d7146101bf578063d22057a9146101d7578063f2fde38b146101fb578063faff50a81461021c575b600080fd5b3480156100ca57600080fd5b506100d3610243565b60408051600160a060020a039092168252519081900360200190f35b3480156100fb57600080fd5b506100d3610252565b34801561011057600080fd5b50610125600160a060020a0360043516610261565b005b34801561013357600080fd5b506101256102a3565b34801561014857600080fd5b50610125600160a060020a036004351661030d565b34801561016957600080fd5b50610125600435600160a060020a03602435166103ac565b34801561018d57600080fd5b506100d3610453565b3480156101a257600080fd5b506101ab610462565b604080519115158252519081900360200190f35b3480156101cb57600080fd5b50610125600435610473565b3480156101e357600080fd5b50610125600435600160a060020a036024351661048b565b34801561020757600080fd5b50610125600160a060020a03600435166108e6565b34801561022857600080fd5b50610231610905565b60408051918252519081900360200190f35b600354600160a060020a031681565b600254600160a060020a031681565b610269610462565b151561027457600080fd5b6003805473ffffffffffffffffffffffffffffffffffffffff1916600160a060020a0392909216919091179055565b6102ab610462565b15156102b657600080fd5b60008054604051600160a060020a03909116907f8be0079c531659141344cd1fd0a4f28419497f9722a3daafe3b4186f6b6457e0908390a36000805473ffffffffffffffffffffffffffffffffffffffff19169055565b610315610462565b151561032057600080fd5b600254600154604080517f5b0fc9c30000000000000000000000000000000000000000000000000000000081526004810192909252600160a060020a0384811660248401529051921691635b0fc9c39160448082019260009290919082900301818387803b15801561039157600080fd5b505af11580156103a5573d6000803e3d6000fd5b5050505050565b6103b4610462565b15156103bf57600080fd5b600254600154604080517f06ab5923000000000000000000000000000000000000000000000000000000008152600481019290925260248201859052600160a060020a03848116604484015290519216916306ab59239160648082019260009290919082900301818387803b15801561043757600080fd5b505af115801561044b573d6000803e3d6000fd5b505050505050565b600054600160a060020a031690565b600054600160a060020a0316331490565b61047b610462565b151561048657600080fd5b600155565b60025460015460408051602080820193909352808201869052815180820383018152606090910191829052805160009487948694600160a060020a03909216936302571be3939092918291908401908083835b602083106104fd5780518252601f1990920191602091820191016104de565b51815160209384036101000a60001901801990921691161790526040805192909401829003822063ffffffff88167c01000000000000000000000000000000000000000000000000000000000283526004830152925160248083019650939450929083900301905081600087803b15801561057757600080fd5b505af115801561058b573d6000803e3d6000fd5b505050506040513d60208110156105a157600080fd5b50519050600160a060020a03811615806105c35750600160a060020a03811633145b151561063057604080517f08c379a000000000000000000000000000000000000000000000000000000000815260206004820152600a60248201527f4f6e6c79206f776e657200000000000000000000000000000000000000000000604482015290519081900360640190fd5b600254600154604080517f06ab592300000000000000000000000000000000000000000000000000000000815260048101929092526024820188905230604483015251600160a060020a03909216916306ab59239160648082019260009290919082900301818387803b1580156106a657600080fd5b505af11580156106ba573d6000803e3d6000fd5b5050600154604080516020808201939093528082018a9052815180820383018152606090910191829052805190945090925082918401908083835b602083106107145780518252601f1990920191602091820191016106f5565b5181516020939093036101000a6000190180199091169216919091179052604080519190930181900381206002546003547f1896f70a00000000000000000000000000000000000000000000000000000000845260048401839052600160a060020a0390811660248501529451919950939093169450631896f70a9350604480820193600093509182900301818387803b1580156107b157600080fd5b505af11580156107c5573d6000803e3d6000fd5b5050600354604080517fd5fa2b0000000000000000000000000000000000000000000000000000000000815260048101889052600160a060020a038981166024830152915191909216935063d5fa2b009250604480830192600092919082900301818387803b15801561083757600080fd5b505af115801561084b573d6000803e3d6000fd5b5050600254600154604080517f06ab59230000000000000000000000000000000000000000000000000000000081526004810192909252602482018a9052600160a060020a0389811660448401529051921693506306ab5923925060648082019260009290919082900301818387803b1580156108c757600080fd5b505af11580156108db573d6000803e3d6000fd5b505050505050505050565b6108ee610462565b15156108f957600080fd5b6109028161090b565b50565b60015481565b600160a060020a038116151561092057600080fd5b60008054604051600160a060020a03808516939216917f8be0079c531659141344cd1fd0a4f28419497f9722a3daafe3b4186f6b6457e091a36000805473ffffffffffffffffffffffffffffffffffffffff1916600160a060020a03929092169190911790555600a165627a7a72305820ef0d4cbcef43d5a27dfd4df2e507883f7dcf15ef359f730ef41e8d1b11e4ec5e0029",
  "source": "pragma solidity ^0.4.25;\r\n\r\nimport \"openzeppelin-solidity/contracts/ownership/Ownable.sol\";\r\nimport \"../lib/ENS.sol\";\r\nimport \"../lib/ResolverInterface.sol\";\r\n\r\ncontract TopmonksRegistrar is Ownable {\r\n    bytes32 public rootNode;\r\n    ENS public ens;\r\n    ResolverInterface public resolver;\r\n\r\n    modifier onlyDomainOwner(bytes32 subnode) {\r\n        address currentOwner = ens.owner(keccak256(abi.encodePacked(rootNode, subnode)));\r\n        require(currentOwner == address(0) || currentOwner == msg.sender, \"Only owner\");\r\n        _;\r\n    }\r\n\r\n    constructor(bytes32 _node, address _ensAddr, address _resolverAddr) public {\r\n        rootNode = _node;\r\n        ens = ENS(_ensAddr);\r\n        resolver = ResolverInterface(_resolverAddr);\r\n    }\r\n\r\n    function setRootNode(bytes32 _node) public onlyOwner {\r\n        rootNode = _node;\r\n    }\r\n\r\n    function setResolver(address _resolverAddr) public onlyOwner {\r\n        resolver = ResolverInterface(_resolverAddr);\r\n    }\r\n\r\n    function setNodeOwner(address _newOwner) public onlyOwner {\r\n        ens.setOwner(rootNode, _newOwner);\r\n    }\r\n\r\n    function setSubnodeOwner(bytes32 _subnode, address _addr) public onlyOwner {\r\n        ens.setSubnodeOwner(rootNode, _subnode, _addr);\r\n    }\r\n\r\n    function register(bytes32 _subnode, address _addr) public onlyDomainOwner(_subnode) {\r\n        ens.setSubnodeOwner(rootNode, _subnode, address(this));\r\n        bytes32 node = keccak256(abi.encodePacked(rootNode, _subnode));\r\n        ens.setResolver(node, address(resolver));\r\n        resolver.setAddr(node, _addr);\r\n        ens.setSubnodeOwner(rootNode, _subnode, _addr);\r\n    }\r\n}\r\n",
  "sourcePath": "C:\\src\\personal\\ens-registrar\\contracts\\TopmonksRegistrar.sol",
  "compiler": {
    "name": "solc",
    "version": "0.4.25+commit.59dbf8f1.Emscripten.clang"
  },
  "schemaVersion": "3.0.0",
  "updatedAt": "2019-01-02T10:58:59.722Z",
  "devdoc": {
    "methods": {
      "isOwner()": {
        "return": "true if `msg.sender` is the owner of the contract."
      },
      "owner()": {
        "return": "the address of the owner."
      },
      "renounceOwnership()": {
        "details": "Allows the current owner to relinquish control of the contract."
      },
      "transferOwnership(address)": {
        "details": "Allows the current owner to transfer control of the contract to a newOwner.",
        "params": {
          "newOwner": "The address to transfer ownership to."
        }
      }
    }
  },
  "userdoc": {
    "methods": {
      "renounceOwnership()": {
        "notice": "Renouncing to ownership will leave the contract without an owner. It will not be possible to call the functions with the `onlyOwner` modifier anymore."
      }
    }
  }
}